{
  "address": "0x75036f2Bb3208DAD7a465657c0094d7827Ad1909",
  "abi": [
    {
      "inputs": [
        {
          "internalType": "address",
          "name": "_router",
          "type": "address"
        },
        {
          "internalType": "address",
          "name": "_link",
          "type": "address"
        }
      ],
      "stateMutability": "nonpayable",
      "type": "constructor"
    },
    {
      "anonymous": false,
      "inputs": [
        {
          "indexed": true,
          "internalType": "bytes32",
          "name": "messageId",
          "type": "bytes32"
        },
        {
          "indexed": true,
          "internalType": "uint64",
          "name": "destinationChainSelector",
          "type": "uint64"
        },
        {
          "indexed": false,
          "internalType": "address",
          "name": "receiver",
          "type": "address"
        },
        {
          "indexed": false,
          "internalType": "string",
          "name": "text",
          "type": "string"
        },
        {
          "indexed": false,
          "internalType": "uint256",
          "name": "fees",
          "type": "uint256"
        }
      ],
      "name": "MessageSent",
      "type": "event"
    },
    {
      "anonymous": false,
      "inputs": [
        {
          "indexed": true,
          "internalType": "bytes32",
          "name": "messageId",
          "type": "bytes32"
        },
        {
          "indexed": true,
          "internalType": "uint64",
          "name": "destinationChainSelector",
          "type": "uint64"
        },
        {
          "indexed": false,
          "internalType": "address",
          "name": "receiver",
          "type": "address"
        },
        {
          "indexed": false,
          "internalType": "uint256",
          "name": "fees",
          "type": "uint256"
        }
      ],
      "name": "TokensTransferred",
      "type": "event"
    },
    {
      "inputs": [
        {
          "internalType": "uint64",
          "name": "destinationChainSelector",
          "type": "uint64"
        },
        {
          "internalType": "address",
          "name": "receiver",
          "type": "address"
        },
        {
          "internalType": "string",
          "name": "text",
          "type": "string"
        }
      ],
      "name": "sendMessage",
      "outputs": [
        {
          "internalType": "bytes32",
          "name": "messageId",
          "type": "bytes32"
        }
      ],
      "stateMutability": "nonpayable",
      "type": "function"
    },
    {
      "inputs": [
        {
          "internalType": "uint64",
          "name": "_destinationChain",
          "type": "uint64"
        },
        {
          "internalType": "address",
          "name": "_token",
          "type": "address"
        },
        {
          "internalType": "address",
          "name": "_receiver",
          "type": "address"
        },
        {
          "internalType": "uint256",
          "name": "_amount",
          "type": "uint256"
        }
      ],
      "name": "transferToken2AnyChain",
      "outputs": [
        {
          "internalType": "bytes32",
          "name": "messageId",
          "type": "bytes32"
        }
      ],
      "stateMutability": "nonpayable",
      "type": "function"
    }
  ],
  "transactionHash": "0xc858bd0af8320fd6c85c6dcdb8c8b1c1179001153c678c315e33bede25c6d004",
  "args": [
    "0x2a9C5afB0d0e4BAb2BCdaE109EC4b0c4Be15a165",
    "0xb1D4538B4571d411F07960EF2838Ce337FE1E80E"
  ],
  "numDeployments": 2,
  "solcInputHash": "45b254e63d9d5ed13ffe639cde2643c8",
  "bytecode": "0x608060405234801561001057600080fd5b50604051610cc0380380610cc083398101604081905261002f9161007c565b600080546001600160a01b039384166001600160a01b031991821617909155600180549290931691161790556100af565b80516001600160a01b038116811461007757600080fd5b919050565b6000806040838503121561008f57600080fd5b61009883610060565b91506100a660208401610060565b90509250929050565b610c02806100be6000396000f3fe608060405234801561001057600080fd5b50600436106100365760003560e01c80630eb5ad451461003b5780634d0a6e3914610060575b600080fd5b61004e610049366004610900565b610073565b60405190815260200160405180910390f35b61004e61006e36600461098e565b6103d2565b6040805160a081019091526001600160a01b03841660c082015260009081908060e08101604051602081830303815290604052815260200185856040516020016100be929190610a02565b60408051601f198184030181529190528152602001600060405190808252806020026020018201604052801561011a57816020015b60408051808201909152600080825260208201528152602001906001900390816100f35790505b5081526001546001600160a01b031660208083019190915260408051918201815262030d4082529091019061014e9061088f565b9052600080546040516320487ded60e01b815292935090916001600160a01b03909116906320487ded90610188908a908690600401610a64565b602060405180830381865afa1580156101a5573d6000803e3d6000fd5b505050506040513d601f19601f820116820180604052508101906101c99190610b3e565b6001546040516323b872dd60e01b8152336004820152306024820152604481018390529192506001600160a01b0316906323b872dd906064016020604051808303816000875af1158015610221573d6000803e3d6000fd5b505050506040513d601f19601f820116820180604052508101906102459190610b57565b61028e5760405162461bcd60e51b8152602060048201526015602482015274436f756c646e74207472616e73666572204c696e6b60581b60448201526064015b60405180910390fd5b60015460005460405163095ea7b360e01b81526001600160a01b0391821660048201526024810184905291169063095ea7b3906044016020604051808303816000875af11580156102e3573d6000803e3d6000fd5b505050506040513d601f19601f820116820180604052508101906103079190610b57565b506000546040516396f4e9f960e01b81526001600160a01b03909116906396f4e9f99061033a908a908690600401610a64565b6020604051808303816000875af1158015610359573d6000803e3d6000fd5b505050506040513d601f19601f8201168201806040525081019061037d9190610b3e565b92508667ffffffffffffffff16837f72bf88fdd9d3b2023da1448d9689b4d63d2cffa089fd364b50e6077331986f7c888888866040516103c09493929190610b80565b60405180910390a35050949350505050565b60408051600180825281830190925260009185918391816020015b60408051808201909152600080825260208201528152602001906001900390816103ed57905050905060006040518060400160405280886001600160a01b03168152602001868152509050808260008151811061044c5761044c610bb6565b60209081029190910101526040805160a081019091526001600160a01b03871660c08201526000908060e0810160408051601f198184030181529181529082528051602081810183526000808352848201929092528383018890526001546001600160a01b03166060850152825190810190925281526080909101906104d19061088f565b9052600080546040516320487ded60e01b815292935090916001600160a01b03909116906320487ded9061050b908d908690600401610a64565b602060405180830381865afa158015610528573d6000803e3d6000fd5b505050506040513d601f19601f8201168201806040525081019061054c9190610b3e565b6001546040516323b872dd60e01b8152336004820152306024820152604481018390529192506001600160a01b0316906323b872dd906064016020604051808303816000875af11580156105a4573d6000803e3d6000fd5b505050506040513d601f19601f820116820180604052508101906105c89190610b57565b61060c5760405162461bcd60e51b8152602060048201526015602482015274436f756c646e74207472616e73666572204c696e6b60581b6044820152606401610285565b6040516323b872dd60e01b8152336004820152306024820152604481018890526001600160a01b038616906323b872dd906064016020604051808303816000875af115801561065f573d6000803e3d6000fd5b505050506040513d601f19601f820116820180604052508101906106839190610b57565b6106c85760405162461bcd60e51b815260206004820152601660248201527521b7bab632373a103a3930b739b332b9103a37b5b2b760511b6044820152606401610285565b60015460005460405163095ea7b360e01b81526001600160a01b0391821660048201526024810184905291169063095ea7b3906044016020604051808303816000875af115801561071d573d6000803e3d6000fd5b505050506040513d601f19601f820116820180604052508101906107419190610b57565b5060005460405163095ea7b360e01b81526001600160a01b03918216600482015260248101899052908a169063095ea7b3906044016020604051808303816000875af1158015610795573d6000803e3d6000fd5b505050506040513d601f19601f820116820180604052508101906107b99190610b57565b506000546040516396f4e9f960e01b81526001600160a01b03909116906396f4e9f9906107ec908d908690600401610a64565b6020604051808303816000875af115801561080b573d6000803e3d6000fd5b505050506040513d601f19601f8201168201806040525081019061082f9190610b3e565b604080516001600160a01b038b1681526020810184905291975067ffffffffffffffff8c169188917f1ffb7696630bf5f7fdb33fe60d736ea5bb173d88d6d9f68e1a9767ae9c9d7f59910160405180910390a35050505050949350505050565b60408051915160248084019190915281518084039091018152604490920190526020810180516001600160e01b03166397a657c960e01b17905290565b803567ffffffffffffffff811681146108e457600080fd5b919050565b80356001600160a01b03811681146108e457600080fd5b6000806000806060858703121561091657600080fd5b61091f856108cc565b935061092d602086016108e9565b9250604085013567ffffffffffffffff8082111561094a57600080fd5b818701915087601f83011261095e57600080fd5b81358181111561096d57600080fd5b88602082850101111561097f57600080fd5b95989497505060200194505050565b600080600080608085870312156109a457600080fd5b6109ad856108cc565b93506109bb602086016108e9565b92506109c9604086016108e9565b9396929550929360600135925050565b81835281816020850137506000828201602090810191909152601f909101601f19169091010190565b602081526000610a166020830184866109d9565b949350505050565b6000815180845260005b81811015610a4457602081850181015186830182015201610a28565b506000602082860101526020601f19601f83011685010191505092915050565b6000604067ffffffffffffffff8516835260208181850152845160a083860152610a9160e0860182610a1e565b905081860151603f1980878403016060880152610aae8383610a1e565b88860151888203830160808a01528051808352908601945060009350908501905b80841015610b0157845180516001600160a01b0316835286015186830152938501936001939093019290860190610acf565b5060608901516001600160a01b031660a08901526080890151888203830160c08a01529550610b308187610a1e565b9a9950505050505050505050565b600060208284031215610b5057600080fd5b5051919050565b600060208284031215610b6957600080fd5b81518015158114610b7957600080fd5b9392505050565b6001600160a01b0385168152606060208201819052600090610ba590830185876109d9565b905082604083015295945050505050565b634e487b7160e01b600052603260045260246000fdfea2646970667358221220775efb93abc4c76bac76677f988d417a42f1d98f4736817071073415a8c0eee864736f6c63430008140033",
  "devdoc": {
    "kind": "dev",
    "methods": {},
    "version": 1
  },
  "userdoc": {
    "kind": "user",
    "methods": {},
    "version": 1
  },
  "storageLayout": {
    "storage": [
      {
        "astId": 218,
        "contract": "contracts/SenderWithMsg.sol:SenderWithMsg",
        "label": "router",
        "offset": 0,
        "slot": "0",
        "type": "t_contract(IRouterClient)51"
      },
      {
        "astId": 221,
        "contract": "contracts/SenderWithMsg.sol:SenderWithMsg",
        "label": "linkToken",
        "offset": 0,
        "slot": "1",
        "type": "t_contract(IERC20)185"
      }
    ],
    "types": {
      "t_contract(IERC20)185": {
        "encoding": "inplace",
        "label": "contract IERC20",
        "numberOfBytes": "20"
      },
      "t_contract(IRouterClient)51": {
        "encoding": "inplace",
        "label": "contract IRouterClient",
        "numberOfBytes": "20"
      }
    }
  }
}